:020000020000FC
:0200000014C02A
:02000C001FC013
:10002A000FED0DBF02E009BF02E003BF00E205BF0A
:10003A000FEF07BB0FE101BB11277727789488954B
:10004A00FECFC89923D0C89B60E120B3207611F077
:10005A0058E001C05527562B269526952695210F3F
:10006A00F0E0E4EAE20F08F4F39521E0312F3A9543
:10007A0012F0220FFCCF4491352B252B32BB48BB03
:10008A0022BB1395133009F411271895739572350D
:10009A0019F470E16727772708956BED000077A5BB
:0A00AA00000077AE240077AE2400BA
:00000001FF
