:020000020000FC
:1000000009C058BB849B03C038BB859948BB829903
:100010001895FDCF0FED0DBF77240FEF802E87BA17
:1000200088BA08E001BB00E002BB00E40BBF02E0BD
:1000300005BF04E00EBD939A882756D0939810F41C
:10004000D1D0F9CF5FEFA52E30E840E678949AD072
:10005000F0F3D22ED09498D0D0F3622F95D0B8F38D
:10006000722FEE2019F090D008F0A20E83FD26C06A
:100070000D2D037009F10FEFE0FC0A2D0295007FB2
:100080002D2D2770202B286082FD04C0D0FA21F985
:10009000D1FA20F9522F2D2D26FB07F924FB06F962
:1000A000262F15D0320F2D2D27FB07F925FB06F93A
:1000B000272F0DD0420FCBCF8860C4CF0D2D0370FA
:1000C000033009F0BFCF877F04E08027BBCF06FF56
:1000D000219507FD27FD2227222309F4089526955F
:1000E000239506FF219508952FEF21D0F0F08DD0B4
:1000F0004CD0D8F04AD023EF1AD0B8F028EC17D063
:10010000A0F023EF14D088F024E611D070F023EF94
:100110000ED058F020E50BD040F022EF08D028F0A8
:1001200033D018F0E22E24EF02D00895202F022FB2
:1001300007D028F029D018F02E3FC9F32A3F0895A0
:10014000899A50D0889A50D089985BD042D0C0F01C
:1001500058D018E0BB2401C03CD0279510F0889AF5
:1001600002C08898B3942ED01A95B1F732D08898EF
:10017000B0FC889A27D02DD0889824D02AD022D0BD
:100180008898089540D001C03CD0899808B707FDF1
:1001900015C08099FBCF1DD015D018E01AD08894D7
:1001A0008099089427950ED01A95C1F712D00AD0DD
:1001B00010D008D0899A16D088940895899A12D0C0
:1001C0000894089508B707FD0BC0819BFBCF889466
:1001D000089508B707FD04C08199FBCF889408955E
:1001E0000894089508EC01C00AE000000000000037
:1001F0000000000000000000000000000A95A9F7C0
:10020000089509EF03C001EE01C007E60DBD002708
:080210000CBD00E808BF0895D1
:1007E0005A585F4D4F55534520762E342E300D0A02
:1007F000206B326B406C6973742E727520200D0A69
:00000001FF
