:020000020000FC
:1000000016C0FECFFDCF9CC0FBCFFACFF9CFF8CF03
:10001000F7CFF6CF444434382076657230312E3035
:1000200030206279204D69636B2032303132F89490
:10003000EE27ECBBE5BFEFE9EDBF65D070D078945B
:1000400037FC29C0B59B12C036FC03C0C49AE0E45B
:100050003E2A35FE07C040D0EE2391F3BB2011F0BD
:1000600063D0EECFE0E83E2EC19AEACF35D0EE2342
:1000700049F0BB2029F0E0E23E2AC498C39AE0CFC1
:100080003324C398EAEF4E16D8F2E8B3F0E1EF2735
:10009000E8BB4424D5CFB59902C046D0D1CF1CD0FF
:1000A000EE2371F0BB2031F0E0E23E2AC198E42E4D
:1000B000F52EC6CF35FEC4CFEFED3E22C19AC0CF9C
:1000C00035FEBECFC2EED4E0AE2DBF2D32D018F03B
:1000D000EFED3E22C398B4CFEE27B29BE395EA152D
:1000E00069F4AB1411F4EE270895C9E1D0E0AC2D0A
:1000F000BD2D1FD030F0BA2CE1E00895C42ED52ECE
:10010000AE2EEE270895E1ECE8BBEAE1E7BBE2E0C2
:10011000E9BFE8BFE4E0E3BFE5EBE2BF08953324C5
:100120004424AA24BB2408953324E1ECE8BB4424EE
:100130000895842F952F8A1B9B0B8C179D0708957C
:100140000E2EEFB72E2EE8B7E260E8BFE5EBE2BF78
:10015000439509F453954394E22DEFBFE02D189594
:00000001FF
